{
  "contractName": "Voting",
  "abi": [
    {
      "anonymous": false,
      "inputs": [
        {
          "indexed": true,
          "internalType": "address",
          "name": "previousOwner",
          "type": "address"
        },
        {
          "indexed": true,
          "internalType": "address",
          "name": "newOwner",
          "type": "address"
        }
      ],
      "name": "OwnershipTransferred",
      "type": "event"
    },
    {
      "anonymous": false,
      "inputs": [
        {
          "indexed": false,
          "internalType": "uint256",
          "name": "proposalId",
          "type": "uint256"
        }
      ],
      "name": "ProposalRegistered",
      "type": "event"
    },
    {
      "anonymous": false,
      "inputs": [
        {
          "indexed": false,
          "internalType": "address",
          "name": "voter",
          "type": "address"
        },
        {
          "indexed": false,
          "internalType": "uint256",
          "name": "proposalId",
          "type": "uint256"
        }
      ],
      "name": "Voted",
      "type": "event"
    },
    {
      "anonymous": false,
      "inputs": [
        {
          "indexed": false,
          "internalType": "address",
          "name": "voterAddress",
          "type": "address"
        }
      ],
      "name": "VoterRegistered",
      "type": "event"
    },
    {
      "anonymous": false,
      "inputs": [
        {
          "indexed": false,
          "internalType": "enum Voting.WorkflowStatus",
          "name": "previousStatus",
          "type": "uint8"
        },
        {
          "indexed": false,
          "internalType": "enum Voting.WorkflowStatus",
          "name": "newStatus",
          "type": "uint8"
        }
      ],
      "name": "WorkflowStatusChange",
      "type": "event"
    },
    {
      "inputs": [],
      "name": "owner",
      "outputs": [
        {
          "internalType": "address",
          "name": "",
          "type": "address"
        }
      ],
      "stateMutability": "view",
      "type": "function",
      "constant": true
    },
    {
      "inputs": [
        {
          "internalType": "uint256",
          "name": "",
          "type": "uint256"
        }
      ],
      "name": "proposals",
      "outputs": [
        {
          "internalType": "string",
          "name": "description",
          "type": "string"
        },
        {
          "internalType": "uint256",
          "name": "voteCount",
          "type": "uint256"
        }
      ],
      "stateMutability": "view",
      "type": "function",
      "constant": true
    },
    {
      "inputs": [],
      "name": "renounceOwnership",
      "outputs": [],
      "stateMutability": "nonpayable",
      "type": "function"
    },
    {
      "inputs": [
        {
          "internalType": "address",
          "name": "newOwner",
          "type": "address"
        }
      ],
      "name": "transferOwnership",
      "outputs": [],
      "stateMutability": "nonpayable",
      "type": "function"
    },
    {
      "inputs": [
        {
          "internalType": "address",
          "name": "",
          "type": "address"
        }
      ],
      "name": "voters",
      "outputs": [
        {
          "internalType": "bool",
          "name": "isRegistered",
          "type": "bool"
        },
        {
          "internalType": "bool",
          "name": "hasVoted",
          "type": "bool"
        },
        {
          "internalType": "uint256",
          "name": "votedProposalId",
          "type": "uint256"
        }
      ],
      "stateMutability": "view",
      "type": "function",
      "constant": true
    },
    {
      "inputs": [],
      "name": "winningProposalId",
      "outputs": [
        {
          "internalType": "uint256",
          "name": "",
          "type": "uint256"
        }
      ],
      "stateMutability": "view",
      "type": "function",
      "constant": true
    },
    {
      "inputs": [
        {
          "internalType": "address",
          "name": "_voterAddress",
          "type": "address"
        }
      ],
      "name": "registerVoters",
      "outputs": [],
      "stateMutability": "nonpayable",
      "type": "function"
    },
    {
      "inputs": [],
      "name": "proposalsRegistrationStart",
      "outputs": [],
      "stateMutability": "nonpayable",
      "type": "function"
    },
    {
      "inputs": [
        {
          "internalType": "address",
          "name": "_voterAddress",
          "type": "address"
        },
        {
          "internalType": "string",
          "name": "_description",
          "type": "string"
        }
      ],
      "name": "proposalRegister",
      "outputs": [],
      "stateMutability": "nonpayable",
      "type": "function"
    },
    {
      "inputs": [],
      "name": "proposalsRegistrationEnd",
      "outputs": [],
      "stateMutability": "nonpayable",
      "type": "function"
    },
    {
      "inputs": [],
      "name": "votingSessionStart",
      "outputs": [],
      "stateMutability": "nonpayable",
      "type": "function"
    },
    {
      "inputs": [
        {
          "internalType": "uint256",
          "name": "_proposalId",
          "type": "uint256"
        }
      ],
      "name": "vote",
      "outputs": [],
      "stateMutability": "nonpayable",
      "type": "function"
    },
    {
      "inputs": [],
      "name": "votingSessionEnd",
      "outputs": [],
      "stateMutability": "nonpayable",
      "type": "function"
    },
    {
      "inputs": [],
      "name": "votesTally",
      "outputs": [],
      "stateMutability": "nonpayable",
      "type": "function"
    },
    {
      "inputs": [],
      "name": "getWinner",
      "outputs": [
        {
          "internalType": "uint256",
          "name": "",
          "type": "uint256"
        }
      ],
      "stateMutability": "view",
      "type": "function",
      "constant": true
    }
  ],
  "bytecode": "0x608060405260008060146101000a81548160ff021916908360058111156200002c576200002b62000131565b5b02179055503480156200003e57600080fd5b506200005f620000536200006560201b60201c565b6200006d60201b60201c565b62000160565b600033905090565b60008060009054906101000a900473ffffffffffffffffffffffffffffffffffffffff169050816000806101000a81548173ffffffffffffffffffffffffffffffffffffffff021916908373ffffffffffffffffffffffffffffffffffffffff1602179055508173ffffffffffffffffffffffffffffffffffffffff168173ffffffffffffffffffffffffffffffffffffffff167f8be0079c531659141344cd1fd0a4f28419497f9722a3daafe3b4186f6b6457e060405160405180910390a35050565b7f4e487b7100000000000000000000000000000000000000000000000000000000600052602160045260246000fd5b611a1380620001706000396000f3fe608060405234801561001057600080fd5b50600436106100f55760003560e01c8063a3ec138d11610097578063cba1b31111610066578063cba1b31114610205578063ebfb4ff61461020f578063ed8a16081461022b578063f2fde38b14610247576100f5565b8063a3ec138d146101a1578063aa64547c146101d3578063b20cd9d0146101dd578063c64963c5146101e7576100f5565b80636970993c116100d35780636970993c14610151578063715018a61461015b5780638da5cb5b146101655780638e7ea5b214610183576100f5565b80630121b93f146100fa578063013cf08b146101165780632bf08b0b14610147575b600080fd5b610114600480360381019061010f919061124b565b610263565b005b610130600480360381019061012b919061124b565b6104ee565b60405161013e929190611320565b60405180910390f35b61014f6105aa565b005b6101596106ce565b005b6101636107f2565b005b61016d61087a565b60405161017a9190611391565b60405180910390f35b61018b6108a3565b60405161019891906113ac565b60405180910390f35b6101bb60048036038101906101b691906113f3565b6108ad565b6040516101ca9392919061143b565b60405180910390f35b6101db6108f1565b005b6101e5610a15565b005b6101ef610b39565b6040516101fc91906113ac565b60405180910390f35b61020d610b3f565b005b610229600480360381019061022491906115a7565b610c63565b005b610245600480360381019061024091906113f3565b610db9565b005b610261600480360381019061025c91906113f3565b610f9a565b005b6003600581111561027757610276611603565b5b600060149054906101000a900460ff16600581111561029957610298611603565b5b146102a357600080fd5b600260003373ffffffffffffffffffffffffffffffffffffffff1673ffffffffffffffffffffffffffffffffffffffff16815260200190815260200160002060000160019054906101000a900460ff1615610333576040517f08c379a000000000000000000000000000000000000000000000000000000000815260040161032a9061167e565b60405180910390fd5b6000600260003373ffffffffffffffffffffffffffffffffffffffff1673ffffffffffffffffffffffffffffffffffffffff16815260200190815260200160002090506001600260003373ffffffffffffffffffffffffffffffffffffffff1673ffffffffffffffffffffffffffffffffffffffff16815260200190815260200160002060000160016101000a81548160ff02191690831515021790555081600260003373ffffffffffffffffffffffffffffffffffffffff1673ffffffffffffffffffffffffffffffffffffffff1681526020019081526020016000206001018190555060016003838154811061042e5761042d61169e565b5b9060005260206000209060020201600101600082825461044e91906116fc565b9250508190555060036001548154811061046b5761046a61169e565b5b906000526020600020906002020160010154600383815481106104915761049061169e565b5b90600052602060002090600202016001015411156104b157816001819055505b7f4d99b957a2bc29a30ebd96a7be8e68fe50a3c701db28a91436490b7d53870ca433836040516104e2929190611752565b60405180910390a15050565b600381815481106104fe57600080fd5b9060005260206000209060020201600091509050806000018054610521906117aa565b80601f016020809104026020016040519081016040528092919081815260200182805461054d906117aa565b801561059a5780601f1061056f5761010080835404028352916020019161059a565b820191906000526020600020905b81548152906001019060200180831161057d57829003601f168201915b5050505050908060010154905082565b6105b2611092565b73ffffffffffffffffffffffffffffffffffffffff166105d061087a565b73ffffffffffffffffffffffffffffffffffffffff1614610626576040517f08c379a000000000000000000000000000000000000000000000000000000000815260040161061d90611828565b60405180910390fd5b6003600581111561063a57610639611603565b5b600060149054906101000a900460ff16600581111561065c5761065b611603565b5b1461066657600080fd5b6004600060146101000a81548160ff0219169083600581111561068c5761068b611603565b5b02179055507f0a97a4ee45751e2abf3e4fc8946939630b11b371ea8ae39ccdc3056e98f5cc3f600360046040516106c4929190611890565b60405180910390a1565b6106d6611092565b73ffffffffffffffffffffffffffffffffffffffff166106f461087a565b73ffffffffffffffffffffffffffffffffffffffff161461074a576040517f08c379a000000000000000000000000000000000000000000000000000000000815260040161074190611828565b60405180910390fd5b6004600581111561075e5761075d611603565b5b600060149054906101000a900460ff1660058111156107805761077f611603565b5b1461078a57600080fd5b6005600060146101000a81548160ff021916908360058111156107b0576107af611603565b5b02179055507f0a97a4ee45751e2abf3e4fc8946939630b11b371ea8ae39ccdc3056e98f5cc3f600460056040516107e8929190611890565b60405180910390a1565b6107fa611092565b73ffffffffffffffffffffffffffffffffffffffff1661081861087a565b73ffffffffffffffffffffffffffffffffffffffff161461086e576040517f08c379a000000000000000000000000000000000000000000000000000000000815260040161086590611828565b60405180910390fd5b610878600061109a565b565b60008060009054906101000a900473ffffffffffffffffffffffffffffffffffffffff16905090565b6000600154905090565b60026020528060005260406000206000915090508060000160009054906101000a900460ff16908060000160019054906101000a900460ff16908060010154905083565b6108f9611092565b73ffffffffffffffffffffffffffffffffffffffff1661091761087a565b73ffffffffffffffffffffffffffffffffffffffff161461096d576040517f08c379a000000000000000000000000000000000000000000000000000000000815260040161096490611828565b60405180910390fd5b6000600581111561098157610980611603565b5b600060149054906101000a900460ff1660058111156109a3576109a2611603565b5b146109ad57600080fd5b6001600060146101000a81548160ff021916908360058111156109d3576109d2611603565b5b02179055507f0a97a4ee45751e2abf3e4fc8946939630b11b371ea8ae39ccdc3056e98f5cc3f60006001604051610a0b929190611890565b60405180910390a1565b610a1d611092565b73ffffffffffffffffffffffffffffffffffffffff16610a3b61087a565b73ffffffffffffffffffffffffffffffffffffffff1614610a91576040517f08c379a0000000000000000000000000000000000000000000000000000000008152600401610a8890611828565b60405180910390fd5b60026005811115610aa557610aa4611603565b5b600060149054906101000a900460ff166005811115610ac757610ac6611603565b5b14610ad157600080fd5b6003600060146101000a81548160ff02191690836005811115610af757610af6611603565b5b02179055507f0a97a4ee45751e2abf3e4fc8946939630b11b371ea8ae39ccdc3056e98f5cc3f60026003604051610b2f929190611890565b60405180910390a1565b60015481565b610b47611092565b73ffffffffffffffffffffffffffffffffffffffff16610b6561087a565b73ffffffffffffffffffffffffffffffffffffffff1614610bbb576040517f08c379a0000000000000000000000000000000000000000000000000000000008152600401610bb290611828565b60405180910390fd5b60016005811115610bcf57610bce611603565b5b600060149054906101000a900460ff166005811115610bf157610bf0611603565b5b14610bfb57600080fd5b6002600060146101000a81548160ff02191690836005811115610c2157610c20611603565b5b02179055507f0a97a4ee45751e2abf3e4fc8946939630b11b371ea8ae39ccdc3056e98f5cc3f60016002604051610c59929190611890565b60405180910390a1565b60016005811115610c7757610c76611603565b5b600060149054906101000a900460ff166005811115610c9957610c98611603565b5b14610ca357600080fd5b600260008373ffffffffffffffffffffffffffffffffffffffff1673ffffffffffffffffffffffffffffffffffffffff16815260200190815260200160002060000160009054906101000a900460ff16610cfc57600080fd5b61271060038054905010610d0f57600080fd5b60036040518060400160405280838152602001600081525090806001815401808255809150506001900390600052602060002090600202016000909190919091506000820151816000019080519060200190610d6c92919061115e565b506020820151816001015550507f92e393e9b54e2f801d3ea4beb0c5e71a21cc34a5d34b77d0fb8a3aa1650dc18f600380549050604051610dad91906113ac565b60405180910390a15050565b610dc1611092565b73ffffffffffffffffffffffffffffffffffffffff16610ddf61087a565b73ffffffffffffffffffffffffffffffffffffffff1614610e35576040517f08c379a0000000000000000000000000000000000000000000000000000000008152600401610e2c90611828565b60405180910390fd5b60006005811115610e4957610e48611603565b5b600060149054906101000a900460ff166005811115610e6b57610e6a611603565b5b14610e7557600080fd5b600260008273ffffffffffffffffffffffffffffffffffffffff1673ffffffffffffffffffffffffffffffffffffffff16815260200190815260200160002060000160019054906101000a900460ff1615610f05576040517f08c379a0000000000000000000000000000000000000000000000000000000008152600401610efc9061192b565b60405180910390fd5b6001600260008373ffffffffffffffffffffffffffffffffffffffff1673ffffffffffffffffffffffffffffffffffffffff16815260200190815260200160002060000160006101000a81548160ff0219169083151502179055507fb6be2187d059cc2a55fe29e0e503b566e1e0f8c8780096e185429350acffd3dd81604051610f8f9190611391565b60405180910390a150565b610fa2611092565b73ffffffffffffffffffffffffffffffffffffffff16610fc061087a565b73ffffffffffffffffffffffffffffffffffffffff1614611016576040517f08c379a000000000000000000000000000000000000000000000000000000000815260040161100d90611828565b60405180910390fd5b600073ffffffffffffffffffffffffffffffffffffffff168173ffffffffffffffffffffffffffffffffffffffff161415611086576040517f08c379a000000000000000000000000000000000000000000000000000000000815260040161107d906119bd565b60405180910390fd5b61108f8161109a565b50565b600033905090565b60008060009054906101000a900473ffffffffffffffffffffffffffffffffffffffff169050816000806101000a81548173ffffffffffffffffffffffffffffffffffffffff021916908373ffffffffffffffffffffffffffffffffffffffff1602179055508173ffffffffffffffffffffffffffffffffffffffff168173ffffffffffffffffffffffffffffffffffffffff167f8be0079c531659141344cd1fd0a4f28419497f9722a3daafe3b4186f6b6457e060405160405180910390a35050565b82805461116a906117aa565b90600052602060002090601f01602090048101928261118c57600085556111d3565b82601f106111a557805160ff19168380011785556111d3565b828001600101855582156111d3579182015b828111156111d25782518255916020019190600101906111b7565b5b5090506111e091906111e4565b5090565b5b808211156111fd5760008160009055506001016111e5565b5090565b6000604051905090565b600080fd5b600080fd5b6000819050919050565b61122881611215565b811461123357600080fd5b50565b6000813590506112458161121f565b92915050565b6000602082840312156112615761126061120b565b5b600061126f84828501611236565b91505092915050565b600081519050919050565b600082825260208201905092915050565b60005b838110156112b2578082015181840152602081019050611297565b838111156112c1576000848401525b50505050565b6000601f19601f8301169050919050565b60006112e382611278565b6112ed8185611283565b93506112fd818560208601611294565b611306816112c7565b840191505092915050565b61131a81611215565b82525050565b6000604082019050818103600083015261133a81856112d8565b90506113496020830184611311565b9392505050565b600073ffffffffffffffffffffffffffffffffffffffff82169050919050565b600061137b82611350565b9050919050565b61138b81611370565b82525050565b60006020820190506113a66000830184611382565b92915050565b60006020820190506113c16000830184611311565b92915050565b6113d081611370565b81146113db57600080fd5b50565b6000813590506113ed816113c7565b92915050565b6000602082840312156114095761140861120b565b5b6000611417848285016113de565b91505092915050565b60008115159050919050565b61143581611420565b82525050565b6000606082019050611450600083018661142c565b61145d602083018561142c565b61146a6040830184611311565b949350505050565b600080fd5b600080fd5b7f4e487b7100000000000000000000000000000000000000000000000000000000600052604160045260246000fd5b6114b4826112c7565b810181811067ffffffffffffffff821117156114d3576114d261147c565b5b80604052505050565b60006114e6611201565b90506114f282826114ab565b919050565b600067ffffffffffffffff8211156115125761151161147c565b5b61151b826112c7565b9050602081019050919050565b82818337600083830152505050565b600061154a611545846114f7565b6114dc565b90508281526020810184848401111561156657611565611477565b5b611571848285611528565b509392505050565b600082601f83011261158e5761158d611472565b5b813561159e848260208601611537565b91505092915050565b600080604083850312156115be576115bd61120b565b5b60006115cc858286016113de565b925050602083013567ffffffffffffffff8111156115ed576115ec611210565b5b6115f985828601611579565b9150509250929050565b7f4e487b7100000000000000000000000000000000000000000000000000000000600052602160045260246000fd5b7f48617320616c726561647920766f746564210000000000000000000000000000600082015250565b6000611668601283611283565b915061167382611632565b602082019050919050565b600060208201905081810360008301526116978161165b565b9050919050565b7f4e487b7100000000000000000000000000000000000000000000000000000000600052603260045260246000fd5b7f4e487b7100000000000000000000000000000000000000000000000000000000600052601160045260246000fd5b600061170782611215565b915061171283611215565b9250827fffffffffffffffffffffffffffffffffffffffffffffffffffffffffffffffff03821115611747576117466116cd565b5b828201905092915050565b60006040820190506117676000830185611382565b6117746020830184611311565b9392505050565b7f4e487b7100000000000000000000000000000000000000000000000000000000600052602260045260246000fd5b600060028204905060018216806117c257607f821691505b602082108114156117d6576117d561177b565b5b50919050565b7f4f776e61626c653a2063616c6c6572206973206e6f7420746865206f776e6572600082015250565b6000611812602083611283565b915061181d826117dc565b602082019050919050565b6000602082019050818103600083015261184181611805565b9050919050565b6006811061185957611858611603565b5b50565b600081905061186a82611848565b919050565b600061187a8261185c565b9050919050565b61188a8161186f565b82525050565b60006040820190506118a56000830185611881565b6118b26020830184611881565b9392505050565b7f54686973206164647265737320697320616c726561647920726567697374657260008201527f6564202100000000000000000000000000000000000000000000000000000000602082015250565b6000611915602483611283565b9150611920826118b9565b604082019050919050565b6000602082019050818103600083015261194481611908565b9050919050565b7f4f776e61626c653a206e6577206f776e657220697320746865207a65726f206160008201527f6464726573730000000000000000000000000000000000000000000000000000602082015250565b60006119a7602683611283565b91506119b28261194b565b604082019050919050565b600060208201905081810360008301526119d68161199a565b905091905056fea2646970667358221220a8824f4e2168ee9878e5ff1b62794f27615e8cfa96fb8cdc098afb7cbacf598364736f6c634300080a0033",
  "immutableReferences": {},
  "source": "// SPDX-License-Identifier: GPL-3.0\r\n\r\npragma solidity 0.8.10; // Last version\r\n\r\n//import \"https://github.com/OpenZeppelin/openzeppelin-contracts/blob/master/contracts/access/Ownable.sol\";\r\nimport \"../node_modules/@openzeppelin/contracts/access/Ownable.sol\";\r\n\r\n/**\r\n * @title Voting\r\n * Date: 17-11-2021\r\n * @dev 1st challenge : Voting system\r\n */\r\ncontract Voting is Ownable {\r\n\r\n    /*\r\n    * Ordre de dclaration :\r\n    * - structure\r\n    * - numration\r\n    * - variable local\r\n    * - vnement\r\n    * - \"modifier\"\r\n    * - constructeur\r\n    * - fonction\r\n    */ \r\n    \r\n    struct Voter {\r\n        bool isRegistered;\r\n        bool hasVoted;\r\n        uint votedProposalId;\r\n    }\r\n   \r\n    struct Proposal {\r\n        string description;\r\n        uint voteCount;\r\n    }\r\n   \r\n    enum WorkflowStatus {\r\n        RegisteringVoters,\r\n        ProposalsRegistrationStarted,\r\n        ProposalsRegistrationEnded,\r\n        VotingSessionStarted,\r\n        VotingSessionEnded,\r\n        VotesTallied\r\n    }\r\n   \r\n    WorkflowStatus status = WorkflowStatus.RegisteringVoters;\r\n   \r\n    uint public winningProposalId; // id of the winning proposal\r\n   \r\n    mapping(address => Voter) public voters; // list of authorized persons\r\n   \r\n    Proposal[] public proposals; // list of proposals\r\n   \r\n    uint ProposalsRegistrationStart;\r\n    uint ProposalsRegistrationEnd;\r\n    uint VotingSessionStart;\r\n    uint VotingSessionEnd;  \r\n   \r\n    event VoterRegistered(address voterAddress);\r\n    event WorkflowStatusChange(WorkflowStatus previousStatus, WorkflowStatus newStatus);\r\n    event ProposalRegistered(uint proposalId);\r\n    event Voted(address voter, uint proposalId);\r\n       \r\n    /**\r\n     * @dev authorize new voter\r\n     * @param _voterAddress address of the voter to register\r\n     */\r\n    function registerVoters(address _voterAddress) public onlyOwner {\r\n        require(status == WorkflowStatus.RegisteringVoters);\r\n        require(!voters[_voterAddress].hasVoted, \"This address is already registered !\");\r\n       \r\n        voters[_voterAddress].isRegistered = true;\r\n       \r\n        emit VoterRegistered(_voterAddress);\r\n    }\r\n   \r\n    /**\r\n     * @dev start the proposal registration session\r\n     */\r\n    function proposalsRegistrationStart() public onlyOwner {\r\n        require(status==WorkflowStatus.RegisteringVoters);\r\n        status = WorkflowStatus.ProposalsRegistrationStarted;\r\n        emit WorkflowStatusChange(WorkflowStatus.RegisteringVoters, WorkflowStatus.ProposalsRegistrationStarted);\r\n    }\r\n   \r\n    /**\r\n     * @dev the voters register their proposals\r\n     * @param _voterAddress address of the voter who wants submit proposal\r\n     * @param _description value of the proposal\r\n     */\r\n    function proposalRegister(address _voterAddress, string memory _description) public {\r\n        require(status == WorkflowStatus.ProposalsRegistrationStarted);\r\n        require(voters[_voterAddress].isRegistered);\r\n        require(proposals.length < 10000);\r\n        proposals.push(Proposal({\r\n            description: _description,\r\n            voteCount: 0\r\n        }));\r\n               \r\n        emit ProposalRegistered(proposals.length);\r\n    }\r\n   \r\n    /**\r\n     * @dev stop the proposal registration session\r\n     */\r\n    function proposalsRegistrationEnd() public onlyOwner {\r\n        require(status == WorkflowStatus.ProposalsRegistrationStarted);\r\n        status = WorkflowStatus.ProposalsRegistrationEnded;\r\n        emit WorkflowStatusChange(WorkflowStatus.ProposalsRegistrationStarted, WorkflowStatus.ProposalsRegistrationEnded);\r\n    }\r\n   \r\n    /**\r\n     * @dev start the voting session\r\n     */\r\n    function votingSessionStart() public onlyOwner {\r\n        require(status == WorkflowStatus.ProposalsRegistrationEnded);\r\n        status = WorkflowStatus.VotingSessionStarted;\r\n        emit WorkflowStatusChange(WorkflowStatus.ProposalsRegistrationEnded, WorkflowStatus.VotingSessionStarted);\r\n    }\r\n   \r\n    /**\r\n     * @dev the voters can vote one time and define the winning proposal\r\n     * @param _proposalId id of the proposal choose by the voter\r\n     */\r\n    function vote(uint _proposalId) public {\r\n        require(status == WorkflowStatus.VotingSessionStarted);\r\n        require(!voters[msg.sender].hasVoted, \"Has already voted!\");\r\n       \r\n        Voter storage sender = voters[msg.sender]; // variable d'tat, donc  stocker dans le \"storage\"\r\n           \r\n        voters[msg.sender].hasVoted = true;\r\n        voters[msg.sender].votedProposalId = _proposalId;\r\n        proposals[_proposalId].voteCount += 1; // on comptabilise le vote\r\n           \r\n        if(proposals[_proposalId].voteCount > proposals[winningProposalId].voteCount) {\r\n            winningProposalId = _proposalId;\r\n        }\r\n        \r\n        emit Voted(msg.sender, _proposalId);\r\n    }\r\n   \r\n    /**\r\n     * @dev stop the voting session\r\n     */\r\n    function votingSessionEnd() public onlyOwner {\r\n        require(status == WorkflowStatus.VotingSessionStarted);\r\n        status = WorkflowStatus.VotingSessionEnded;\r\n        emit WorkflowStatusChange(WorkflowStatus.VotingSessionStarted, WorkflowStatus.VotingSessionEnded);\r\n    }\r\n   \r\n    /**\r\n     * @dev tally the votes\r\n     */\r\n    function votesTally() public onlyOwner {\r\n        require(status == WorkflowStatus.VotingSessionEnded);\r\n        status = WorkflowStatus.VotesTallied;\r\n        emit WorkflowStatusChange(WorkflowStatus.VotingSessionEnded, WorkflowStatus.VotesTallied);\r\n    }\r\n   \r\n    /**\r\n     * @dev returns the winning proposal\r\n     * @return id of the winning proposal\r\n     */\r\n    function getWinner() public view returns(uint) {\r\n        return  winningProposalId;\r\n    }\r\n}",
  "sourcePath": "C:\\Users\\aldwi\\OneDrive\\Documents\\-- PERSO DAVID --\\GitHub\\Alyra\\Developpeur-Ethereum-Template\\4. Truffle & CI-CD\\voting-system\\contracts\\Voting.sol",
  "compiler": {
    "name": "solc",
    "version": "0.8.10+commit.fc410830.Emscripten.clang"
  },
  "schemaVersion": "3.4.3",
  "updatedAt": "2021-12-01T11:28:25.304Z",
  "networkType": "ethereum",
  "devdoc": {
    "details": "1st challenge : Voting system",
    "kind": "dev",
    "methods": {
      "getWinner()": {
        "details": "returns the winning proposal",
        "returns": {
          "_0": "id of the winning proposal"
        }
      },
      "owner()": {
        "details": "Returns the address of the current owner."
      },
      "proposalRegister(address,string)": {
        "details": "the voters register their proposals",
        "params": {
          "_description": "value of the proposal",
          "_voterAddress": "address of the voter who wants submit proposal"
        }
      },
      "proposalsRegistrationEnd()": {
        "details": "stop the proposal registration session"
      },
      "proposalsRegistrationStart()": {
        "details": "start the proposal registration session"
      },
      "registerVoters(address)": {
        "details": "authorize new voter",
        "params": {
          "_voterAddress": "address of the voter to register"
        }
      },
      "renounceOwnership()": {
        "details": "Leaves the contract without owner. It will not be possible to call `onlyOwner` functions anymore. Can only be called by the current owner. NOTE: Renouncing ownership will leave the contract without an owner, thereby removing any functionality that is only available to the owner."
      },
      "transferOwnership(address)": {
        "details": "Transfers ownership of the contract to a new account (`newOwner`). Can only be called by the current owner."
      },
      "vote(uint256)": {
        "details": "the voters can vote one time and define the winning proposal",
        "params": {
          "_proposalId": "id of the proposal choose by the voter"
        }
      },
      "votesTally()": {
        "details": "tally the votes"
      },
      "votingSessionEnd()": {
        "details": "stop the voting session"
      },
      "votingSessionStart()": {
        "details": "start the voting session"
      }
    },
    "title": "Voting Date: 17-11-2021",
    "version": 1
  },
  "userdoc": {
    "kind": "user",
    "methods": {},
    "version": 1
  }
}